:020000040800F2
:1000000000100020491600089916000899160008EB
:1000100000000000000000000000000000000000E0
:100020000000000000000000000000009916000819
:10003000000000000000000099160008D10600082A
:10004000991600080000000099160008991600088B
:1000500099160008991600089916000899160008C4
:100060000000000045080008610800088D0800082D
:100070009916000891080008B10800080000000067
:10008000B90800080000000000000000D9080008BE
:1000900000000000DB080008DD08000899160008D1
:1000A000000000009916000800000000E1080008A8
:1000B0000000000000000000000000000000000040
:1000C0000448054B10B5834203D0044B002B00D0ED
:1000D000984710BD00000020000000200000000034
:1000E00006480749091A8B10C90FC91810B54910DD
:1000F00003D0044B002B00D0984710BD0000002017
:10010000000000200000000010B5074C2378002BF1
:1001100009D1FFF7D5FF054B002B02D0044800E0C2
:1001200000BF0123237010BD00000020000000006C
:100130009C160008054B10B5002B03D00449054858
:1001400000E000BFFFF7CCFF10BDC046000000007C
:10015000040000209C16000870B50C4D0C4E761B58
:10016000B61005D0002408CD01349847A642FAD134
:1001700001F094FA074D084E761BB61005D0002406
:1001800008CD01349847A642FAD170BD381900084D
:10019000381900083819000840190008F0B5C6469B
:1001A00000B50F2A43D90B00032603431E400C0061
:1001B0000300002E40D11500103D2D09AC462D0145
:1001C000A846804400E03B00676825685F60E768F8
:1001D0001D60DF601F00A56810379D601034434527
:1001E000F1D165460F230C2401352D014919134027
:1001F0004519144223D08C59AC5104369C1B032C56
:10020000F9D80324043B9B0801339B002240ED18DE
:10021000C918561E002A07D0002300E02300CA5C3C
:100220005C1CEA549E42F9D104BC9046F0BD050026
:10023000561E002AF0D1F7E7561E0500ECE71A001B
:10024000F6E7C046F0B5050083074AD0541E002AE1
:1002500044D0CEB20300032202E00135013C3DD37D
:1002600001332E701342F8D1032C2FD9FF220A40FC
:10027000150215432A0415430F2C35D92700103FCA
:100280003F093E01B4461E001A0010366644156050
:1002900055609560D5601032B242F8D10F260C221D
:1002A00001373F012640DB193700224217D03E1F9D
:1002B000B608B400A4461A001C1D644420C2A24221
:1002C000FCD103240136B6009B193C40002C05D01C
:1002D000C9B21C19197001339C42FBD1F0BD340026
:1002E000F4E714000300BFE72700E0E702B471461B
:1002F00049084900095C49008E4402BC7047C04669
:10030000002243088B4274D303098B425FD3030A54
:100310008B4244D3030B8B4228D3030C8B420DD367
:10032000FF22090212BA030C8B4202D312120902F5
:1003300065D0030B8B4219D300E0090AC30B8B4233
:1003400001D3CB03C01A5241830B8B4201D38B03E1
:10035000C01A5241430B8B4201D34B03C01A524186
:10036000030B8B4201D30B03C01A5241C30A8B42C9
:1003700001D3CB02C01A5241830A8B4201D38B02B4
:10038000C01A5241430A8B4201D34B02C01A524158
:10039000030A8B4201D30B02C01A5241CDD2C309CA
:1003A0008B4201D3CB01C01A524183098B4201D346
:1003B0008B01C01A524143098B4201D34B01C01A31
:1003C000524103098B4201D30B01C01A5241C308A9
:1003D0008B4201D3CB00C01A524183088B4201D318
:1003E0008B00C01A524143088B4201D34B00C01A04
:1003F0005241411A00D20146524110467047FFE770
:1004000001B5002000F0F0F802BDC0460029F7D089
:1004100076E7704703460B437FD4002243088B42A4
:1004200074D303098B425FD3030A8B4244D3030B7B
:100430008B4228D3030C8B420DD3FF22090212BA40
:10044000030C8B4202D31212090265D0030B8B42BC
:1004500019D300E0090AC30B8B4201D3CB03C01AA6
:100460005241830B8B4201D38B03C01A5241430B81
:100470008B4201D34B03C01A5241030B8B4201D371
:100480000B03C01A5241C30A8B4201D3CB02C01ADC
:100490005241830A8B4201D38B02C01A5241430A54
:1004A0008B4201D34B02C01A5241030A8B4201D343
:1004B0000B02C01A5241CDD2C3098B4201D3CB01EA
:1004C000C01A524183098B4201D38B01C01A524199
:1004D00043098B4201D34B01C01A524103098B429D
:1004E00001D30B01C01A5241C3088B4201D3CB0088
:1004F000C01A524183088B4201D38B00C01A52416B
:1005000043088B4201D34B00C01A5241411A00D21A
:1005100001465241104670475DE0CA0F00D0494283
:10052000031000D34042534000229C4603098B42F3
:100530002DD3030A8B4212D3FC22890112BA030A7B
:100540008B420CD3890192118B4208D389019211FD
:100550008B4204D389013AD0921100E08909C30982
:100560008B4201D3CB01C01A524183098B4201D384
:100570008B01C01A524143098B4201D34B01C01A6F
:10058000524103098B4201D30B01C01A5241C308E7
:100590008B4201D3CB00C01A524183088B4201D356
:1005A0008B00C01A5241D9D243088B4201D34B0071
:1005B000C01A5241411A00D20146634652415B10B3
:1005C000104601D34042002B00D549427047634694
:1005D0005B1000D3404201B5002000F005F802BDD9
:1005E0000029F8D016E770477047C0461F2318400F
:1005F0001E3B8340014A13607047C04600E100E0A3
:100600000268406810B503685C1C9B00D318046046
:10061000196110BD036C013303647047826810B523
:10062000136BFC33D969C969C90612D50020FF24B0
:10063000596A4968586089B2601AA04200D92000FE
:100640009860FF2905D0116C516499685B68CB1ADA
:10065000536510BD10B50400002C05D023682000A0
:100660001B6898476468F7E710BD030002681069CB
:100670005A68012393401840431E9841C0B2704706
:100680000300080006CB0123002802D093408B61B1
:1006900070471032FAE710B50468002C05D02368C3
:1006A00020001B689847A468F7E710BD10B5040048
:1006B0000830FFF7F0FF20696169431C2361FFF7F1
:1006C000A5FE002902D12000FFF7E5FF10BD0000C4
:1006D00010B50248FFF7EAFF10BDC04680020020B7
:1006E000037B002B0DD00023426803738368002A2C
:1006F0000ED0002B08D0936083685A6000234360BB
:10070000836070470B60F8E7044993604A60F5E73F
:100710000249002BF6D10B604B60EFE7800200200E
:10072000037B002B0CD101330373064B5A684260E4
:10073000002A00D090601A685860002A00D1186022
:100740007047C046800200201C4B10B55B68040057
:100750005B0508005B0F12D0042B12D0052B12D0C2
:10076000063B5A425341164A5B4213409B180728E6
:1007700011D8FFF7BBFD0A121417191C1E21114BCB
:10078000F5E7114BF3E7114BF1E7962189011800CA
:10079000FFF7B6FDE060200010BDE121F6E79621ED
:1007A000C901F4E7E121FBE796210902EFE7E12126
:1007B000FBE796214902EAE7E121FBE7001002404E
:1007C000C0C62D00006CDC0200366E01001BB700B5
:1007D0000123C9B2890003398B4000681840431EC9
:1007E0009841C0B2704770B58468236BFC33D96AF6
:1007F0009869FFF7EDFF002823D0012100220D00AA
:10080000236BFC335A609A605A6905CA10329540CE
:100810008561186A02688A4302605A6A10688843D0
:100820001060FF2050601068014311601168C90713
:10083000FCD5DA691023116820000B431360FFF721
:100840006FFF70BD044B10B51868FFF703FF01225E
:10085000024B5A6010BDC046380200200000024022
:10086000074B10B51868FFF7F5FE1023054C6360C1
:10087000054B1868FFF7EEFE80235B00636010BD38
:10088000400200200000024048020020FEE7000075
:10089000054B10B51868FFF7DDFE0121034A138AE6
:1008A0008B43138210BDC04668020020002C01401B
:1008B00010B5FFF7EDFF10BD054B10B51868FFF739
:1008C000C9FE0121034A138A8B43138210BDC0461F
:1008D0007002002000040040FEE7FEE7FEE7000093
:1008E000044B10B51868FFF7B5FE0122024B5242C7
:1008F0001A6210BD78020020003801408022164B99
:10090000520219680A431A601A689203FCD5F02152
:100910005A688A435A605A6810490A4003215A604B
:100920005A688A43110002220A435A605A680C49E5
:100930001140802252030A435A60802259685202B1
:100940000A435A608022196852040A431A601A68DE
:100950009201FCD57047C04600100240FFF8FFFF2F
:10096000FFFFC3FFF8B50123674C684F22681A42A6
:100970006BD1674A67481168194205D19021C905B2
:100980000160022113604160802330217A699B025B
:1009900013437B6103681A688A43110020220A43CB
:1009A0001A601A6A5C491140802252000A431A6296
:1009B00001225A4B5A491D68154205D19025ED0573
:1009C0000D6003251A604D608023C0257A699B0263
:1009D00013437B610B681A68AA43150080222A43DF
:1009E0001A601A6A4F4D1540802252012A431A623A
:1009F00001234D4D4D4A2E681E4203D14C4E53608B
:100A000016602B6080237D69DB022B430C257B6104
:100A100016683368AB431D0004232B433360454BFA
:100A20000025FC335A61444A5D609A61434A9D60E7
:100A3000DA61434AD8601A62424A19615A62062250
:100A40009A62043ADA62012323608023394EBA693C
:100A50003400DB0113430822BB61FC34E3698025C9
:100A6000196804200A431A60042219680A431A60AC
:100A70009A682A439A60402299680A439A60324BE6
:100A80001856FFF7B3FD01237A69304913437B61A0
:100A90001027236A2E481A683A431A60626892192E
:100AA000DA60E26928329A601A682A431A601A6882
:100AB0000A401A601A6802401A600222042019686B
:100AC0000A431A60234B1856FFF790FD636A1F49CB
:100AD0001A681F48BA431A6062689219DA60E269BC
:100AE00024329A60FF225A601A6815431D601A6802
:100AF0000A401A601A6802401A6020221968300001
:100B00000A431A60F8BDC04664000020001002408D
:100B1000AC010020B0010020FFF0FFFFA001002089
:100B2000A4010020FF0FFFFF940100209801002086
:100B30000004004868000020000002400038014026
:100B40001C0002403000024078020020FFF3FFFF4B
:100B5000FFFCFFFF400200200300FC339A68FE2ADE
:100B600003D881549A6801329A607047F0B5056BDA
:100B700000202900FC318C684A68A31A022B24D972
:100B80000600A24202D2013C8C602E5D8B680024DC
:100B90009A4202D2013B8B60EC5C8B68AA18ED187C
:100BA000FF230A491F008C46094811780132594039
:100BB00063465B5C7B40475C9542F6D10020B742C0
:100BC00003D11B1B58425841C0B2F0BD2C1700087E
:100BD0002C180008C36B70B51C68036B05001A0065
:100BE000FC3252689A5C23799A420CD00922A0699F
:100BF00023181A7503210130FFF7F2FCA161EB6D98
:100C00000133EB6570BDFFF7B1FF002803D1A06988
:100C100010222318EDE7296B0B00FC339A68586803
:100C2000824201D9013058605E6896420ED2701C33
:100C300058608E57002E09DA0026824202D9421CE3
:100C40005A600E5CA06923181E75D3E7207A03282A
:100C5000D8D15868824201D9013058605868E66896
:100C6000451CAA420FD90024824201D95D600C5C68
:100C70005D680020AA4202D96A1C5A60485D2402BD
:100C800020433080BEE700233380BBE70B1A1B11E3
:100C9000002B18DD0268127C002A04D04268127C06
:100CA000002A01D1043070478268127C002A01D1E9
:100CB0000830F8E7C268127C002A01D10C30F2E754
:100CC0001030013BE4E70B1A082B0AD00C2B03D0A1
:100CD000042B0BD00800E6E703681B7C002BE2D056
:100CE000043003681B7C002BDDD0043003681B7CC0
:100CF000002BEFD1D7E70000F7B5437B0400012BB1
:100D00002ED0022B00D1CFE0002B37D1036BC16C6A
:100D1000FC339A685B68D31A426D9A4200D24164F0
:100D2000256C8D4210DB1222E36B03211E68B06933
:100D300033181A750130FFF753FCE36DB1610133CD
:100D4000E365022325656373636CED1AA36C9D4212
:100D500014DB2000FFF73EFF236C2365022379E0BC
:100D6000050000233035C06B29001A1CFFF78EFFE9
:100D7000E063854203D123001033E363F7BD0568C8
:100D8000206B00260300FC335E609E602979FFF72C
:100D9000E3FE297A206BFFF7DFFE3100206BFFF7BF
:100DA000DBFEA979206BFFF7D7FE2B7A032B01D04E
:100DB000102B51D10021206BFFF7CEFE0121206BBB
:100DC000FFF7CAFE2B7A102B07D10021206BFFF70B
:100DD000C3FEEB681978FFF7BFFEFD222B7AD91E00
:100DE000114246D12B6829001B6801A898476B4621
:100DF000206B5979FFF7B0FE6B461979FFF7ACFE0F
:100E00000120E36C0500636400236365236E0133F6
:100E10002366236BFC335A691168526895408D61D3
:100E20001025D9690A68AA430A60596A0A68824388
:100E30000A60196A0A6882430A609A685B68D31A72
:100E400002339BB24B600B68184308600B68DB07EA
:100E5000FCD50023637391E7052BBED1EB68206BB3
:100E600019884B1E99414942C9B2FFF775FE3100FE
:100E7000A5E7102BC4D1206BFF210200FC32536880
:100E80009668114A0D009446104FC31886191A78B7
:100E900001334A406146895C6940BD5C9E42F6D19F
:100EA000FFF75AFE2900A9E7036C026D093B934244
:100EB00000DC63E700230364FFF712FCE36B0433F9
:100EC000E3630123C6E7C0462C1700082C1800086E
:100ED0000121F0B5F44BF54A1868D3B0084205D1AA
:100EE0009020C00510600920196050608021F04BEF
:100EF00089025869014359611168EE480A68024045
:100F000001200A60EC49ED4A0C68044205D19024A6
:100F1000E40514600824086054608021586989023F
:100F2000014359611168E6480A68024001200A60DD
:100F3000E44AE5491468044204D1E44C10600C60B2
:100F40000F244C6080225869D2021043586108680F
:100F5000DF4C0168890089080160256801202E00A6
:100F6000DC490640054203D1D84D4E600D6020603B
:100F7000586902435A610868032102688A430239AA
:100F80000A430260D448D54A04680C4205D1902433
:100F9000E4051460072401605460802158698902C7
:100FA000014359611068CE49026811408022D20184
:100FB0000A4301210260CB4A1068084206D19024FE
:100FC000C948E40504600624116044608022596920
:100FD00092020A435A61C44B00241968C34B0A6841
:100FE00003251A4080235B0113430B600423012671
:100FF00012AF2A002100FB8017A819AB3E713D7289
:10100000FB603C74FFF71EF9B94B052208331293BD
:101010004D236B44DE771CAB1A7021ABFB621EAB19
:101020002A0021001C701FA8BC61BC83FC84FFF750
:1010300009F90522AF4B21003B6223AB1E7014ABB4
:10104000DE8724AB1A7026AB2A0029AE1C7027A8B5
:10105000BC63BC87FE64FFF7F5F834800126A64B1D
:101060000B223B642BAB1E70AE236B441A802CAB5F
:101070001D702EAB2A00210031AE1C702FA8BC655C
:10108000FE66FFF7DFF8348001269C4B07223B66A3
:1010900033AB1E70CE236B441A8034AB1D7036AB5D
:1010A0002A00210039AE1C7037A8BC673596FFF7BF
:1010B000C9F834800126924B082232933BAB1E7054
:1010C000EE236B441A803CAB1D703EAB2A0021001E
:1010D00041AE1C703FA838943D96FFF7B3F83480BA
:1010E0000126884B05223A9343AB1E7087235B0091
:1010F0006B441A8044AB1D7046AB2A00210049AEF8
:101100001C7047A840944596FFF79CF83480012650
:101110007D4B062242934BAB1E7097235B006B44C2
:101120001A804CAB1D704EAB51AE1C702A002100D2
:101130004FA848944D96FFF785F8744B50944A9306
:10114000372333800126724B01341B68674D1C40E6
:10115000334200D09FE0FFF705FC6E4B6E4A06005D
:101160001A60802252009A811A001032DA63042237
:101170009A64C432DA641A005832186314706748EB
:10118000674A68495A660268DC655C609C6058631F
:1011900099631C641C651C669C66DB66002A00D192
:1011A0000DE110005268002AFBD11A00643242603F
:1011B00000225A675C4A9B671A670A68002A00D1B6
:1011C00001E111005268002AFBD11A0070324A6016
:1011D00000243900029302A801AB03930194FFF7A6
:1011E0000FFA082202A904A8FEF7D8FF1AA904A83A
:1011F000FFF706FA082204A906A8FEF7CFFF22A9E6
:1012000006A8FFF7FDF9082206A908A8FEF7C6FF01
:101210002AA908A8FFF7F4F9082208A90AA8FEF7E6
:10122000BDFF32A90AA8FFF7EBF908220AA90CA80A
:10123000FEF7B4FF3AA90CA8FFF7E2F908220CA9BF
:101240000EA8FEF7ABFF42A90EA8FFF7D9F90822B6
:101250000EA910A8FEF7A2FFFC364AA910A8FFF7B6
:10126000CFF9B26A2100F069FFF76EFA2F4A0368DE
:101270001340036003682E4A1340036043682D4AFD
:101280001D40456003681340012203600368134357
:1012900003601F4B1A6000251E48FFF72DFD0A4C06
:1012A0000126200048E0C046580000205C000020D5
:1012B00000100240FFFFF3FF4C0000205000002010
:1012C000FFFFFCFF40000020440000200004004815
:1012D0003400002038000020280000202C000020CE
:1012E000FF3FFFFF1C00002020000020FFCFFFFF7A
:1012F0002C190008BC160008C8160008D4160008EF
:10130000E0160008EC160008F8160008041700089C
:10131000B8010020BC010020281700087802002036
:1013200010170008400200201C170008FFFDFFFFF7
:10133000FFEFFFFFFFFBFFFFFFF797F91EAB7040CA
:1013400018702000FFF791F926AB70401870214803
:10135000FFF78BF984226B469B1818701E48FFF725
:1013600084F929AB18703C7F1C48E607A407E40FFA
:101370002100F60FFFF784F931001948FFF780F9D3
:1013800049AB1A8851AB1B8893429B415B421D437A
:1013900003D014239342AD416D42002C17D031ABE2
:1013A0001B881B0705D139AB1A8841AB1B889A42B1
:1013B0000DD221000B48FFF763F930BF6CE71A002C
:1013C00064320260F4E61A0070320A6000E72C0012
:1013D000EFE7C0465C000020500000202C000020F9
:1013E0003800002020000020FF23F0B51D00064F2C
:1013F000064E0C7801315C403B5D6B40355D8A42A6
:10140000F7D105704370F0BD2C1700082C180008A8
:101410001FB50A2200236A441380074B040001937E
:10142000802301A95B008B80FA3B8B60FFF7DCFF18
:10143000200004B010BDC046010300041FB50A22FD
:1014400000236A441380074B04000193802301A901
:101450005B008B80FA3B8B60FFF7C6FF200004B077
:1014600010BDC046010300061FB50A2200236A44CE
:101470001380074B04000193802301A95B008B803C
:10148000FA3B8B60FFF7B0FF200004B010BDC046F0
:10149000010300051FB50A2200236A441380074B8D
:1014A00004000193802301A95B008B80FA3B8B60D1
:1014B000FFF79AFF200004B010BDC04601030008EA
:1014C0001FB50A2200236A441380074B04000193CE
:1014D000802301A95B008B80FA3B8B60FFF784FFC0
:1014E000200004B010BDC046010300071FB50A224A
:1014F00000236A441380074B04000193802301A951
:101500005B008B80FA3B8B60FFF76EFF200004B01E
:1015100010BDC0460103000B1FB58B8B04000D4AA4
:10152000002B12D0002369464B810192FF336A469B
:1015300013810623039304336B4420001A0001A98E
:10154000FFF752FF200004B010BD69464B810192A5
:10155000EDE7C046010500011FB58B8B04000D4A65
:10156000002B12D0002369464B810192FF336A465B
:1015700013810623039304336B4420001A0001A94E
:10158000FFF732FF200004B010BD69464B81019285
:10159000EDE7C046010500000023012110B51E4AF9
:1015A000136053609360D360136151611B4A1068EC
:1015B000884310601A4850600420936014682043E8
:1015C000106002201468204310601068014311600D
:1015D0001921144A13601171134A023113601171F9
:1015E000124A0E3913601171114A033113601171DF
:1015F000104A0739136011710F4A013111711360DC
:101600000E4A117113600E4A0131136011710D4AB7
:101610001360117110BDC0468002002010E000E090
:101620007FBB0000600200207802002068020020DA
:1016300070020020380200204002002048020020F2
:1016400050020020580200200D4885460D480E49E2
:101650000E4A002302E0D458C4500433C4188C420C
:10166000F9D30B4A0B4C002301E013600432A24271
:10167000FBD3FFF743F9FEF76FFDFFF729FCFEE709
:101680000010002000000020000000204419000885
:101690000000002098020020FEE70000F8B5C046D8
:1016A000F8BC08BC9E467047F8B5C046F8BC08BCFC
:0416B0009E4670479B
:1016B40000000000000000005915000800000000B0
:1016C40000000000191500080000000000000000E0
:1016D400ED1400080000000000000000C114000820
:1016E4000000000000000000951400080000000045
:1016F4000000000069140008000000000000000061
:101704003D14000800000000000000001D06000851
:101714000000000000000000E707000800000000CF
:10172400000000001506000800C1814001C080418E
:1017340001C0804100C1814001C0804100C181409D
:1017440000C1814001C0804101C0804100C181408D
:1017540000C1814001C0804100C1814001C080417D
:1017640001C0804100C1814001C0804100C181406D
:1017740000C1814001C0804100C1814001C080415D
:1017840001C0804100C1814000C1814001C080414D
:1017940001C0804100C1814001C0804100C181403D
:1017A40000C1814001C0804101C0804100C181402D
:1017B40000C1814001C0804100C1814001C080411D
:1017C40001C0804100C1814000C1814001C080410D
:1017D40001C0804100C1814001C0804100C18140FD
:1017E40000C1814001C0804100C1814001C08041ED
:1017F40001C0804100C1814001C0804100C18140DD
:1018040000C1814001C0804101C0804100C18140CC
:1018140000C1814001C0804100C1814001C08041BC
:1018240001C0804100C1814000C0C101C30302C2A4
:10183400C60607C705C5C404CC0C0DCD0FCFCE0E0C
:101844000ACACB0BC90908C8D81819D91BDBDA1A7C
:101854001EDEDF1FDD1D1CDC14D4D515D71716D6EC
:10186400D21213D311D1D010F03031F133F3F2325C
:1018740036F6F737F53534F43CFCFD3DFF3F3EFECC
:10188400FA3A3BFB39F9F83828E8E929EB2B2AEA3C
:10189400EE2E2FEF2DEDEC2CE42425E527E7E626AC
:1018A40022E2E323E12120E0A06061A163A3A2621C
:1018B40066A6A767A56564A46CACAD6DAF6F6EAE8C
:1018C400AA6A6BAB69A9A86878B8B979BB7B7ABAFC
:1018D400BE7E7FBF7DBDBC7CB47475B577B7B6766C
:1018E40072B2B373B17170B05090915193535292DC
:1018F40096565797559594549C5C5D9D5F9F9E5E4C
:101904005A9A9B5B99595898884849894B8B8A4ABB
:101914004E8E8F4F8D4D4C8C44848545874746862B
:1019240082424383418180400000000000000000A7
:041934001114000882
:081938003501000899150008B3
:041940000901000891
:040000050800164990
:00000001FF
