:020000040800F2
:1000000000100020B91000080911000809110008AB
:1000100000000000000000000000000000000000E0
:1000200000000000000000000000000009110008AE
:100030000000000000000000091100080904000889
:10004000091100080000000009110008091100084A
:100050000911000809110008091100080911000818
:1000600000000000510500086D0500089905000812
:10007000091100089D050008BD05000800000000EA
:10008000C50500080000000000000000E5050008AC
:1000900000000000E7050008E90500080911000854
:1000A000000000000911000800000000ED05000834
:1000B0000000000000000000000000000000000040
:1000C0000448054B10B5834203D0044B002B00D0ED
:1000D000984710BD00000020000000200000000034
:1000E00006480749091A8B10C90FC91810B54910DD
:1000F00003D0044B002B00D0984710BD0000002017
:10010000000000200000000010B5074C2378002BF1
:1001100009D1FFF7D5FF054B002B02D0044800E0C2
:1001200000BF0123237010BD00000020000000006C
:100130000C110008054B10B5002B03D004490548ED
:1001400000E000BFFFF7CCFF10BDC046000000007C
:10015000040000200C11000870B50C4D0C4E761BED
:10016000B61005D0002408CD01349847A642FAD134
:1001700000F0CCFF074D084E761BB61005D00024CA
:1001800008CD01349847A642FAD170BD4813000843
:10019000481300084813000850130008F0B5050084
:1001A00083074AD0541E002A44D0CEB20300032253
:1001B00002E00135013C3DD301332E701342F8D1EA
:1001C000032C2FD9FF220A40150215432A04154398
:1001D0000F2C35D92700103F3F093E01B4461E00C1
:1001E0001A0010366644156055609560D56010326F
:1001F000B242F8D10F260C2201373F012640DB190D
:100200003700224217D03E1FB608B400A4461A0099
:100210001C1D644420C2A242FCD103240136B60056
:100220009B193C40002C05D0C9B21C191970013330
:100230009C42FBD1F0BD3400F4E714000300BFE79B
:100240002700E0E702B4714649084900095C49000B
:100250008E4402BC7047C046002243088B4274D3D0
:1002600003098B425FD3030A8B4244D3030B8B42B7
:1002700028D3030C8B420DD3FF22090212BA030CC0
:100280008B4202D31212090265D0030B8B4219D3A1
:1002900000E0090AC30B8B4201D3CB03C01A5241C1
:1002A000830B8B4201D38B03C01A5241430B8B4209
:1002B00001D34B03C01A5241030B8B4201D30B03F2
:1002C000C01A5241C30A8B4201D3CB02C01A524119
:1002D000830A8B4201D38B02C01A5241430A8B42DC
:1002E00001D34B02C01A5241030A8B4201D30B02C5
:1002F000C01A5241CDD2C3098B4201D3CB01C01ADF
:10030000524183098B4201D38B01C01A52414309E8
:100310008B4201D34B01C01A524103098B4201D3D6
:100320000B01C01A5241C3088B4201D3CB00C01A43
:10033000524183088B4201D38B00C01A52414308BB
:100340008B4201D34B00C01A5241411A00D20146E0
:10035000524110467047FFE701B5002000F006F853
:1003600002BDC0460029F7D076E770477047C04607
:100370001F2318401E3B8340014A13607047C0464C
:1003800000E100E0C3690133C361704710B50400A8
:10039000002C05D0236820001B6898476468F7E7A5
:1003A00010BD0300026810695A6801239340184089
:1003B000431E9841C0B270470300080006CB0123DA
:1003C000002802D093408B6170471032FAE710B5D5
:1003D0000468002C05D0236820001B689847A46897
:1003E000F7E710BD10B504000830FFF7F0FF2069F3
:1003F0006169431C2361FFF7B5FF002902D120008A
:10040000FFF7E5FF10BD000010B50248FFF7EAFF57
:1004100010BDC04684020020037B002B0DD00023BA
:10042000426803738368002A0ED0002B08D09360C3
:1004300083685A6000234360836070470B60F8E76D
:10044000044993604A60F5E70249002BF6D10B603E
:100450004B60EFE784020020037B002B0CD10133BB
:100460000373064B5A684260002A00D090601A68F5
:100470005860002A00D118607047C04684020020EE
:10048000806810B50369FC33DA69D269D2060ED5EB
:100490000021FF245A6A5268596092B2A11AA142FF
:1004A00000D921009960FF2A01D0FFF7D5FF10BDC8
:1004B0001C4B10B55B6804005B0508005B0F12D095
:1004C000042B12D0052B12D0063B5A425341164A38
:1004D0005B4213409B18072811D8FFF7B3FE0A129E
:1004E0001417191C1E21114BF5E7114BF3E7114BA3
:1004F000F1E7962189011800FFF7AEFEE0602000C9
:1005000010BDE121F6E79621C901F4E7E121FBE7FF
:1005100096210902EFE7E121FBE796214902EAE78C
:10052000E121FBE700100240C0C62D00006CDC0298
:1005300000366E01001BB7000123C9B289000339E0
:100540008B4000681840431E9841C0B270470000BD
:10055000044B10B51868FFF719FF0122024B5A60CF
:1005600010BDC0463C02002000000240074B10B501
:100570001868FFF70BFF1023054C6360054B1868E4
:10058000FFF704FF80235B00636010BD440200207E
:10059000000002404C020020FEE70000054B10B5B1
:1005A0001868FFF7F3FE0121034A138A8B43138275
:1005B00010BDC0466C020020002C014010B5FFF7B2
:1005C000EDFF10BD054B10B51868FFF7DFFE0121E8
:1005D000034A138A8B43138210BDC0467402002065
:1005E00000040040FEE7FEE7FEE70000044B10B504
:1005F0001868FFF7CBFE0122024B52421A6210BD6F
:100600007C020020003801408022164B52021968FB
:100610000A431A601A689203FCD5F0215A688A438B
:100620005A605A6810490A4003215A605A688A433E
:10063000110002220A435A605A680C491140802274
:1006400052030A435A608022596852020A435A6090
:100650008022196852040A431A601A689201FCD574
:100660007047C04600100240FFF8FFFFFFFFC3FFC6
:10067000F8B50123674C684F22681A426BD1674A6C
:1006800067481168194205D19021C905016002210E
:1006900013604160802330217A699B0213437B61A0
:1006A00003681A688A43110020220A431A601A6AF2
:1006B0005C491140802252000A431A6201225A4BBF
:1006C0005A491D68154205D19025ED050D60032599
:1006D0001A604D608023C0257A699B0213437B61B9
:1006E0000B681A68AA43150080222A431A601A6A06
:1006F0004F4D1540802252012A431A6201234D4D6D
:100700004D4A2E681E4203D14C4E536016602B603A
:1007100080237D69DB022B430C257B6116683368DF
:10072000AB431D0004232B433360454B0025FC33B2
:100730005A61444A5D609A61434A9D60DA61434A66
:10074000D8601A62424A19615A6206229A62043AD1
:10075000DA62012323608023394EBA693400DB0159
:1007600013430822BB61FC34E36980251968042027
:100770000A431A60042219680A431A609A682A43D5
:100780009A60402299680A439A60324B1856FFF7E4
:10079000EFFD01237A69304913437B611027236AF7
:1007A0002E481A683A431A6062689219DA60E26960
:1007B00028329A601A682A431A601A680A401A6036
:1007C0001A6802401A600222042019680A431A605B
:1007D000234B1856FFF7CCFD636A1F491A681F4860
:1007E000BA431A6062689219DA60E26924329A6048
:1007F000FF225A601A6815431D601A680A401A6081
:100800001A6802401A602022196830000A431A60F0
:10081000F8BDC046E8000020001002403002002071
:1008200034020020FFF0FFFF2402002028020020F5
:10083000FF0FFFFF180200201C02002000040048E8
:10084000EC00002000000240003801401C00024083
:10085000300002407C020020FFF3FFFFFFFCFFFF9F
:10086000440200200122002310B51400FC30436034
:10087000836043690ACB10339C408C61016A0B682A
:1008800093430B60436A196891431960FF215960D3
:1008900019680A431A601A68D207FCD51023C26986
:1008A00011680B43136010BD10B584682369FC33D5
:1008B000D96A9869FFF740FE002802D02069FFF747
:1008C000D1FF10BDFF23F0B51D00064F064E0C787A
:1008D00001315C403B5D6B40355D8A42F7D105706C
:1008E0004370F0BD48110008481200080100FC31B7
:1008F00010B54A688C6803000020944202D9501C4D
:100900004860985C10BD0300FC339A68FE2A03D847
:1009100081549A6801329A60704770B50C000500E6
:10092000090AFFF7F0FFE1B2FFF7EDFF280070BD05
:10093000012110B50C00FC3043691A685B689C40CB
:1009400094611024C2691368A3431360426A136858
:100950008B431360026A13688B431360836840689B
:100960001B1A02339BB2536013681943116013685A
:10097000DB07FCD510BD37B5040000690022030079
:10098000FC330D005A609A6001290DD1631DD97F97
:10099000FFF7B9FFA31DD97F80231943FFF7B3FFEA
:1009A0002900FFF7B0FF03E00229EFD00329EDD0C3
:1009B000216901A80B00FC339A685B688A18C91882
:1009C000FFF780FF6B4620695979FFF79CFF6B4664
:1009D0001979FFF798FF2069FFF7AAFF37BD0200DA
:1009E000FC3253689268013370B504000D009A42DE
:1009F0000BD9FFF77BFF06002000FFF777FF3602D9
:100A0000C0B230432880200070BD00230B80FAE77D
:100A100070B50D000100040026310069FFF7DFFF0B
:100A2000210020692A31FFF7DAFF628DE38CD318A9
:100A3000013B9BB2AB428041238552002C344042A3
:100A4000227070BD010010B5040026310069FFF767
:100A5000C6FF02212000FFF78EFF10BD0121F0B577
:100A6000D84AD94B106887B0084205D19020C005FC
:100A700018600920116058608021D44A89025069A9
:100A8000014351611968D2480B68034001200B6093
:100A9000D049D14B0C68044205D19024E4051C6078
:100AA000082408605C60802150698902014351611B
:100AB0001968CA480B68034001200B60C84BC9493C
:100AC0001C68044204D1C84C18600C600F244C60B0
:100AD00080235069DB02184350610868C34C0168E9
:100AE000890089080160256801202E00C049064060
:100AF000054203D1BC4D4E600D6020605069034338
:100B000053610868032103688B4302390B43036078
:100B1000B848B94B04680C4205D19024E4051C6028
:100B2000072401605C6080215069890201435161A2
:100B30001868B249036819408023DB010B43036046
:100B40000120AF49AF4B0C68044205D19024E40565
:100B50001C60062408605C608021506989020143A2
:100B60005161196880230A68A74D5B012A4013432D
:100B70000B60FFF77DFDA54E01223168A44C0B00F0
:100B80001340114251D165272061601DC7772000B5
:100B90002C30A04AA0496360A3602373E361236201
:100BA000E384A36203702386E3639C4B2260A36308
:100BB0009B4A0B686161A2612464002B00D193E021
:100BC00019005B68002BFBD1964B4B600023A3649C
:100BD000954BE46463641368002B00D187E01A002E
:100BE0005B68002BFBD1914B536020000A2200214F
:100BF0005030FFF7D3FA20000A2200215A30FFF7C5
:100C0000CDFA20000A2200216430FFF7C7FA200045
:100C10000A2200216E30FFF7C1FA200005220021D0
:100C20007930FFF7BBFA0123336004232362236981
:100C30000021FC339A6AD869FFF73AFC0127036860
:100C40007B4A1340036003687A4A13400360436899
:100C5000794A1D40456003681340036003683B43C5
:100C600003602069FFF7FEFD05945E4C2000FFF74E
:100C700098FB00283ED05448FFF793FB0200059BE9
:100C80003A4062331878B843104318705248FFF75F
:100C900088FB0221059A384062324300107888436D
:100CA000184310702000FFF77CFB0421059A3840A0
:100CB000623283001078884318431070059C059BAE
:100CC00001932369FC335A6A51689A685B6889B258
:100CD000D21AFF235B1A9A421ED200232000E3613E
:100CE000FFF79AFB30BFC0E74E4B0B606EE74F4BF0
:100CF00013607AE70221059B62331A78BA431A70AF
:100D0000059B62331A788A431A70059B491862332F
:100D10001A788A431A70D1E7E369226A9342E1DBC9
:100D200000252000E561FFF777FB20690300FC3315
:100D30009A685968561A072E02D8FFF793FDD1E733
:100D4000661D0396465CB446661DF67FB445F4D135
:100D50008A4202D9013A9A60855C9A6800269142DB
:100D600002D2013A9A60865C9A684118821804A8F7
:100D7000FFF7A8FD04AB1B78AB4220D104AB5B7836
:100D80002069B3421BD1FFF7B1FD2069FFF7AEFD2B
:100D9000A31D0500D877052800D12BE1102800D12C
:100DA00084E03900032806D105212000FFF730FE3A
:100DB000002843D102212000FFF7DDFD92E72069E2
:100DC000BBE7C046580000205C0000200010024035
:100DD000FFFFF3FF4C00002050000020FFFFFCFF4E
:100DE000400000204400002000040048340000209F
:100DF00038000020280000202C000020FF3FFFFFCB
:100E00001C00002020000020FFCFFFFF6400002016
:100E100068000020441100087C0200202C1100080A
:100E200044020020A000002038110008AC0000207F
:100E3000FFFDFFFFFFEFFFFFFFFBFFFF2069002229
:100E40000300FC335A609A60631DD97FFFF75BFD96
:100E50002900FFF758FD23002C331978FFF753FDC5
:100E6000638D20695A1E6285002B09D0E38C5A1CC1
:100E70002C335B00E284E3185988FFF74EFDEFE75F
:100E80000300FC339A6859688218411804A8FFF7D8
:100E900019FD04AB59782069FFF735FD04AB1978CB
:100EA000FFF731FD2069FFF743FD1BE70521200017
:100EB000FFF7AEFD002800D17CE720692100020089
:100EC000FC32536895682C319D422FD95D1C5560CA
:100ED000C35C00250B70638DAB423AD921002069B9
:100EE0002E31FFF77CFDE38C5B19E2187932117823
:100EF0005B00E28D00291BD0E318180011B28C466C
:100F0000643006880021405E844501DA002E1ED13F
:100F100018006E3006880021405E844501DD002EF9
:100F200015D1503301351A80ADB2D4E70023D0E794
:100F3000E3181900643109888A4201D2002906D1D8
:100F400019006E3109888A42EBD90029E9D00321C2
:100F500031E70025638DAB4230D9E38C5B190293F6
:100F6000042B28D1019B019E5933623619780093D6
:100F70007378C907C90FBB430B4373701F48FFF752
:100F80001BFA0220009B197873788907C90F4A0061
:100F90008343134373701A48FFF70EFA009B0298BD
:100FA000197873784907C90F83438A00134315489A
:100FB0007370FFF701FA0135ADB2CBE7206900226B
:100FC0000300FC335A609A60039BD97FFFF79BFCB8
:100FD000A31DD97FFFF797FCE18CFFF79EFC618D85
:100FE000FFF79BFC21690B00FC339A685B688A1849
:100FF000C9184BE72000FFF725FD73E638000020F5
:101000002C000020200000200023012110B51E4AE2
:10101000136053609360D360136151611B4A106881
:10102000884310601A48506004209360146820437D
:1010300010600220146820431060106801431160A2
:101040001921144A13601171134A0231136011718E
:10105000124A0E3913601171114A03311360117174
:10106000104A0739136011710F4A01311171136071
:101070000E4A117113600E4A0131136011710D4A4D
:101080001360117110BDC0468402002010E000E022
:101090007FBB0000640200207C0200206C02002064
:1010A000740200203C020020440200204C02002078
:1010B000540200205C0200200D4885460D480E4970
:1010C0000E4A002302E0D458C4500433C4188C42A2
:1010D000F9D30B4A0B4C002301E013600432A24207
:1010E000FBD3FFF791FAFFF737F8FFF7B7FCFEE7FE
:1010F0000010002000000020000000205413000811
:10110000000000209C020020FEE70000F8B5C04669
:10111000F8BC08BC9E467047F8B5C046F8BC08BC91
:041120009E46704730
:10112400000000000000000081040008000000002E
:1011340000000000A90800080000000000000000F2
:101144008503000800C1814001C0804101C0804185
:1011540000C1814001C0804100C1814000C1814083
:1011640001C0804101C0804100C1814000C1814073
:1011740001C0804100C1814001C0804101C0804163
:1011840000C1814001C0804100C1814000C1814053
:1011940001C0804100C1814001C0804101C0804143
:1011A40000C1814000C1814001C0804101C0804133
:1011B40000C1814001C0804100C1814000C1814023
:1011C40001C0804101C0804100C1814000C1814013
:1011D40001C0804100C1814001C0804101C0804103
:1011E40000C1814000C1814001C0804101C08041F3
:1011F40000C1814001C0804100C1814000C18140E3
:1012040001C0804100C1814001C0804101C08041D2
:1012140000C1814001C0804100C1814000C18140C2
:1012240001C0804101C0804100C1814000C18140B2
:1012340001C0804100C1814001C0804101C08041A2
:1012440000C1814000C0C101C30302C2C60607C772
:1012540005C5C404CC0C0DCD0FCFCE0E0ACACB0BE2
:10126400C90908C8D81819D91BDBDA1A1EDEDF1F12
:10127400DD1D1CDC14D4D515D71716D6D21213D302
:1012840011D1D010F03031F133F3F23236F6F737B2
:10129400F53534F43CFCFD3DFF3F3EFEFA3A3BFBA2
:1012A40039F9F83828E8E929EB2B2AEAEE2E2FEF52
:1012B4002DEDEC2CE42425E527E7E62622E2E323C2
:1012C400E12120E0A06061A163A3A26266A6A767F2
:1012D400A56564A46CACAD6DAF6F6EAEAA6A6BAB62
:1012E40069A9A86878B8B979BB7B7ABABE7E7FBF92
:1012F4007DBDBC7CB47475B577B7B67672B2B37382
:10130400B17170B050909151935352929656579731
:10131400559594549C5C5D9D5F9F9E5E5A9A9B5B21
:1013240099595898884849894B8B8A4A4E8E8F4FD1
:101334008D4D4C8C44848545874746868242438341
:041344004181804023
:0813480035010008091000083E
:041350000901000887
:04000005080010B926
:00000001FF
