:020000040800F2
:1000000000100020C9160008191700081917000869
:1000100000000000000000000000000000000000E0
:100020000000000000000000000000001917000898
:10003000000000000000000019170008D1060008A9
:100040001917000800000000191700081917000808
:1000500019170008191700081917000819170008C0
:100060000000000045080008610800088D0800082D
:100070001917000891080008B108000800000000E6
:10008000B90800080000000000000000D9080008BE
:1000900000000000DB080008DD0800081917000850
:1000A000000000001917000800000000E108000827
:1000B0000000000000000000000000000000000040
:1000C0000448054B10B5834203D0044B002B00D0ED
:1000D000984710BD00000020000000200000000034
:1000E00006480749091A8B10C90FC91810B54910DD
:1000F00003D0044B002B00D0984710BD0000002017
:10010000000000200000000010B5074C2378002BF1
:1001100009D1FFF7D5FF054B002B02D0044800E0C2
:1001200000BF0123237010BD00000020000000006C
:100130001C170008054B10B5002B03D004490548D7
:1001400000E000BFFFF7CCFF10BDC046000000007C
:10015000040000201C17000870B50C4D0C4E761BD7
:10016000B61005D0002408CD01349847A642FAD134
:1001700001F0D4FA074D084E761BB61005D00024C6
:1001800008CD01349847A642FAD170BDB8190008CD
:10019000B8190008B8190008C0190008F0B5C6461B
:1001A00000B50F2A43D90B00032603431E400C0061
:1001B0000300002E40D11500103D2D09AC462D0145
:1001C000A846804400E03B00676825685F60E768F8
:1001D0001D60DF601F00A56810379D601034434527
:1001E000F1D165460F230C2401352D014919134027
:1001F0004519144223D08C59AC5104369C1B032C56
:10020000F9D80324043B9B0801339B002240ED18DE
:10021000C918561E002A07D0002300E02300CA5C3C
:100220005C1CEA549E42F9D104BC9046F0BD050026
:10023000561E002AF0D1F7E7561E0500ECE71A001B
:10024000F6E7C046F0B5050083074AD0541E002AE1
:1002500044D0CEB20300032202E00135013C3DD37D
:1002600001332E701342F8D1032C2FD9FF220A40FC
:10027000150215432A0415430F2C35D92700103FCA
:100280003F093E01B4461E001A0010366644156050
:1002900055609560D5601032B242F8D10F260C221D
:1002A00001373F012640DB193700224217D03E1F9D
:1002B000B608B400A4461A001C1D644420C2A24221
:1002C000FCD103240136B6009B193C40002C05D01C
:1002D000C9B21C19197001339C42FBD1F0BD340026
:1002E000F4E714000300BFE72700E0E702B471461B
:1002F00049084900095C49008E4402BC7047C04669
:10030000002243088B4274D303098B425FD3030A54
:100310008B4244D3030B8B4228D3030C8B420DD367
:10032000FF22090212BA030C8B4202D312120902F5
:1003300065D0030B8B4219D300E0090AC30B8B4233
:1003400001D3CB03C01A5241830B8B4201D38B03E1
:10035000C01A5241430B8B4201D34B03C01A524186
:10036000030B8B4201D30B03C01A5241C30A8B42C9
:1003700001D3CB02C01A5241830A8B4201D38B02B4
:10038000C01A5241430A8B4201D34B02C01A524158
:10039000030A8B4201D30B02C01A5241CDD2C309CA
:1003A0008B4201D3CB01C01A524183098B4201D346
:1003B0008B01C01A524143098B4201D34B01C01A31
:1003C000524103098B4201D30B01C01A5241C308A9
:1003D0008B4201D3CB00C01A524183088B4201D318
:1003E0008B00C01A524143088B4201D34B00C01A04
:1003F0005241411A00D20146524110467047FFE770
:1004000001B5002000F0F0F802BDC0460029F7D089
:1004100076E7704703460B437FD4002243088B42A4
:1004200074D303098B425FD3030A8B4244D3030B7B
:100430008B4228D3030C8B420DD3FF22090212BA40
:10044000030C8B4202D31212090265D0030B8B42BC
:1004500019D300E0090AC30B8B4201D3CB03C01AA6
:100460005241830B8B4201D38B03C01A5241430B81
:100470008B4201D34B03C01A5241030B8B4201D371
:100480000B03C01A5241C30A8B4201D3CB02C01ADC
:100490005241830A8B4201D38B02C01A5241430A54
:1004A0008B4201D34B02C01A5241030A8B4201D343
:1004B0000B02C01A5241CDD2C3098B4201D3CB01EA
:1004C000C01A524183098B4201D38B01C01A524199
:1004D00043098B4201D34B01C01A524103098B429D
:1004E00001D30B01C01A5241C3088B4201D3CB0088
:1004F000C01A524183088B4201D38B00C01A52416B
:1005000043088B4201D34B00C01A5241411A00D21A
:1005100001465241104670475DE0CA0F00D0494283
:10052000031000D34042534000229C4603098B42F3
:100530002DD3030A8B4212D3FC22890112BA030A7B
:100540008B420CD3890192118B4208D389019211FD
:100550008B4204D389013AD0921100E08909C30982
:100560008B4201D3CB01C01A524183098B4201D384
:100570008B01C01A524143098B4201D34B01C01A6F
:10058000524103098B4201D30B01C01A5241C308E7
:100590008B4201D3CB00C01A524183088B4201D356
:1005A0008B00C01A5241D9D243088B4201D34B0071
:1005B000C01A5241411A00D20146634652415B10B3
:1005C000104601D34042002B00D549427047634694
:1005D0005B1000D3404201B5002000F005F802BDD9
:1005E0000029F8D016E770477047C0461F2318400F
:1005F0001E3B8340014A13607047C04600E100E0A3
:100600000268406810B503685C1C9B00D318046046
:10061000196110BD436C013343647047826810B5A3
:10062000536BFC33D969C969C90612D50020FF2470
:10063000596A4968586089B2601AA04200D92000FE
:100640009860FF2905D0516C916499685B68CB1A5A
:10065000936510BD10B50400002C05D02368200060
:100660001B6898476468F7E710BD030002681069CB
:100670005A68012393401840431E9841C0B2704706
:100680000300080006CB0123002802D093408B61B1
:1006900070471032FAE710B50468002C05D02368C3
:1006A00020001B689847A468F7E710BD10B5040048
:1006B0000830FFF7F0FF20696169431C2361FFF7F1
:1006C000A5FE002902D12000FFF7E5FF10BD0000C4
:1006D00010B50248FFF7EAFF10BDC04684020020B3
:1006E000037B002B0DD00023426803738368002A2C
:1006F0000ED0002B08D0936083685A6000234360BB
:10070000836070470B60F8E7044993604A60F5E73F
:100710000249002BF6D10B604B60EFE7840200200A
:10072000037B002B0CD101330373064B5A684260E4
:10073000002A00D090601A685860002A00D1186022
:100740007047C046840200201C4B10B55B68040053
:100750005B0508005B0F12D0042B12D0052B12D0C2
:10076000063B5A425341164A5B4213409B180728E6
:1007700011D8FFF7BBFD0A121417191C1E21114BCB
:10078000F5E7114BF3E7114BF1E7962189011800CA
:10079000FFF7B6FDE060200010BDE121F6E79621ED
:1007A000C901F4E7E121FBE796210902EFE7E12126
:1007B000FBE796214902EAE7E121FBE7001002404E
:1007C000C0C62D00006CDC0200366E01001BB700B5
:1007D0000123C9B2890003398B4000681840431EC9
:1007E0009841C0B2704770B58468636BFC33D96AB6
:1007F0009869FFF7EDFF002823D0012100220D00AA
:10080000636BFC335A609A605A6905CA103295408E
:100810008561186A02688A4302605A6A10688843D0
:100820001060FF2050601068014311601168C90713
:10083000FCD5DA691023116820000B431360FFF721
:100840006FFF70BD044B10B51868FFF703FF01225E
:10085000024B5A6010BDC0463C020020000002401E
:10086000074B10B51868FFF7F5FE1023054C6360C1
:10087000054B1868FFF7EEFE80235B00636010BD38
:1008800044020020000002404C020020FEE700006D
:10089000054B10B51868FFF7DDFE0121034A138AE6
:1008A0008B43138210BDC0466C020020002C014017
:1008B00010B5FFF7EDFF10BD054B10B51868FFF739
:1008C000C9FE0121034A138A8B43138210BDC0461F
:1008D0007402002000040040FEE7FEE7FEE700008F
:1008E000044B10B51868FFF7B5FE0122024B5242C7
:1008F0001A6210BD7C020020003801408022164B95
:10090000520219680A431A601A689203FCD5F02152
:100910005A688A435A605A6810490A4003215A604B
:100920005A688A43110002220A435A605A680C49E5
:100930001140802252030A435A60802259685202B1
:100940000A435A608022196852040A431A601A68DE
:100950009201FCD57047C04600100240FFF8FFFF2F
:10096000FFFFC3FFF8B50123674C684F22681A42A6
:100970006BD1674A67481168194205D19021C905B2
:100980000160022113604160802330217A699B025B
:1009900013437B6103681A688A43110020220A43CB
:1009A0001A601A6A5C491140802252000A431A6296
:1009B00001225A4B5A491D68154205D19025ED0573
:1009C0000D6003251A604D608023C0257A699B0263
:1009D00013437B610B681A68AA43150080222A43DF
:1009E0001A601A6A4F4D1540802252012A431A623A
:1009F00001234D4D4D4A2E681E4203D14C4E53608B
:100A000016602B6080237D69DB022B430C257B6104
:100A100016683368AB431D0004232B433360454BFA
:100A20000025FC335A61444A5D609A61434A9D60E7
:100A3000DA61434AD8601A62424A19615A62062250
:100A40009A62043ADA62012323608023394EBA693C
:100A50003400DB0113430822BB61FC34E3698025C9
:100A6000196804200A431A60042219680A431A60AC
:100A70009A682A439A60402299680A439A60324BE6
:100A80001856FFF7B3FD01237A69304913437B61A0
:100A90001027236A2E481A683A431A60626892192E
:100AA000DA60E26928329A601A682A431A601A6882
:100AB0000A401A601A6802401A600222042019686B
:100AC0000A431A60234B1856FFF790FD636A1F49CB
:100AD0001A681F48BA431A6062689219DA60E269BC
:100AE00024329A60FF225A601A6815431D601A6802
:100AF0000A401A601A6802401A6020221968300001
:100B00000A431A60F8BDC04664000020001002408D
:100B1000AC010020B0010020FFF0FFFFA001002089
:100B2000A4010020FF0FFFFF940100209801002086
:100B30000004004868000020000002400038014026
:100B40001C000240300002407C020020FFF3FFFF47
:100B5000FFFCFFFF440200200300FC339A68FE2ADA
:100B600003D881549A6801329A607047F0B5456B9A
:100B700000202900FC318C684A68A31A022B24D972
:100B80000600A24202D2013C8C602E5D8B680024DC
:100B90009A4202D2013B8B60EC5C8B68AA18ED187C
:100BA000FF230A491F008C46094811780132594039
:100BB00063465B5C7B40475C9542F6D10020B742C0
:100BC00003D11B1B58425841C0B2F0BDAC170008FE
:100BD000AC180008036C70B51C68436B05001A0064
:100BE000FC3252689A5C23799A420CD00922A0699F
:100BF00023181A7503210130FFF7F2FCA1612B6E57
:100C000001332B6670BDFFF7B1FF002803D1A06947
:100C100010222318EDE7696B0B00FC339A685868C3
:100C2000824201D9013058605E6896420ED2701C33
:100C300058608E57002E09DA0026824202D9421CE3
:100C40005A600E5CA06923181E75D3E7207A03282A
:100C5000D8D15868824201D9013058605868E66896
:100C6000451CAA420FD90024824201D95D600C5C68
:100C70005D680020AA4202D96A1C5A60485D2402BD
:100C800020433080BEE700233380BBE70B1A1B11E3
:100C9000002B18DD0268127C002A04D04268127C06
:100CA000002A01D1043070478268127C002A01D1E9
:100CB0000830F8E7C268127C002A01D10C30F2E754
:100CC0001030013BE4E70B1A082B0AD00C2B03D0A1
:100CD000042B0BD00800E6E703681B7C002BE2D056
:100CE000043003681B7C002BDDD0043003681B7CC0
:100CF000002BEFD1D7E70000F7B5437B0400012BB1
:100D00002ED0022B00D1CFE0002B37D1436B016DE9
:100D1000FC339A685B68D31A826D9A4200D2816470
:100D2000656C8D4210DB1222236C03211E68B069B2
:100D300033181A750130FFF753FC236EB16101338C
:100D40002366022365656373A36CED1AE36C9D4211
:100D500014DB2000FFF73EFF636C6365022379E03C
:100D6000050000233435006C29001A1CFFF78EFFA4
:100D70002064854203D1230010332364F7BD056846
:100D8000606B00260300FC335E609E602979FFF7EC
:100D9000E3FE297A606BFFF7DFFE3100606BFFF73F
:100DA000DBFEA979606BFFF7D7FE2B7A032B01D00E
:100DB000102B51D10021606BFFF7CEFE0121606B3B
:100DC000FFF7CAFE2B7A102B07D10021606BFFF7CB
:100DD000C3FEEB681978FFF7BFFEFD222B7AD91E00
:100DE000114246D12B6829001B6801A898476B4621
:100DF000606B5979FFF7B0FE6B461979FFF7ACFECF
:100E00000120236D0500A3640023A365636E0133F5
:100E10006366636BFC335A691168526895408D6153
:100E20001025D9690A68AA430A60596A0A68824388
:100E30000A60196A0A6882430A609A685B68D31A72
:100E400002339BB24B600B68184308600B68DB07EA
:100E5000FCD50023637391E7052BBED1EB68606B73
:100E600019884B1E99414942C9B2FFF775FE3100FE
:100E7000A5E7102BC4D1606BFF210200FC32536840
:100E80009668114A0D009446104FC31886191A78B7
:100E900001334A406146895C6940BD5C9E42F6D19F
:100EA000FFF75AFE2900A9E7436C426D093B9342C4
:100EB00000DC63E700234364FFF712FC236C043378
:100EC00023640123C6E7C046AC170008AC1800082D
:100ED0000121F0B5CF4BD04A1868DFB0084205D1E8
:100EE0009020C00510600920196050608021CB4B14
:100EF00089025869014359611168C9480A6802406A
:100F000001200A60C749C84A0C68044205D19024F0
:100F1000E40514600824086054608021586989023F
:100F2000014359611168C1480A68024001200A6002
:100F3000BF4AC0491468044204D1BF4C10600C6021
:100F40000F244C6080225869D2021043586108680F
:100F5000BA4C0168890089080160256801202E00CB
:100F6000B7490640054203D1B34D4E600D60206085
:100F7000586902435A610868032102688A430239AA
:100F80000A430260AF48B04A04680C4205D190247D
:100F9000E4051460072401605460802158698902C7
:100FA000014359611068A949026811408022D201A9
:100FB0000A4301210260A64A1068084206D1902423
:100FC000A448E40504600624116044608022596945
:100FD00092020A435A619F4B002419689E4B0A688B
:100FE00003271A4080235B0113430B600423012570
:100FF00016AEF3801DAB21003A003571F3603474F6
:1010000037721BA8FFF71EF9944B02AA08331693F8
:1010100055239B180522DD7720AB1A7025ABF362B0
:1010200022AB21001C703A00B461B483F48423A87D
:10103000FFF708F905228A4B2100336227AB1D70A8
:1010400018ABDD8728AB1A702DAD2AAB1C703A00A7
:10105000B463B487F5642BA8FFF7F4F82C8001255E
:10106000804B02AA33642FAB1D70B6239B18052258
:101070001D8030AB1A7035AD32AB21001C703A00C8
:10108000B465F56633A8FFF7DDF82C800125754BB4
:1010900002AA336637AB1D70D6239B180B221A8029
:1010A00038AB1F703AAB21003DAD1C703A00B467FD
:1010B0003BA83995FFF7C6F82C8001256A4B02AA98
:1010C00036933FAB1D70F6239B1807221A8040AB66
:1010D0001F7042AB210045AD1C703A0043A83C9400
:1010E0004195FFF7AFF82C800125604B02AA3E9393
:1010F00047AB1D708B235B009B1808221A8048ABFE
:101100001F704AAB21004DAD1C703A004BA84494AF
:101110004995FFF797F82C800125554B05214693FB
:101120004FAB1D709B2302AA5B009B18198050AB2C
:101130001F7052AB55AD21001C703A0053A84C945F
:101140005195FFF77FF84B4B02AA4E935023AB20EB
:10115000FF339B180122400002A95A710918053279
:101160000A805DAA21002C802A615C743A005F72BB
:101170005BA85494FFF766F83F4BB6206B603723AB
:10118000012202A9400009180B803C4BEC611B684E
:101190000134314D1C40134200D0F0E0FFF7E2FB78
:1011A000374B384A07001A60802252009A81364A2B
:1011B00058631A640422DA64C4321A651A005C3275
:1011C00032481470324A33499A6602681C665C6081
:1011D0009C609863D9635C645C655C66DC661B67D5
:1011E000002A00D11EE110005268002AFBD12A4AD1
:1011F000426000229A67294ADB675A670A68002A18
:1012000000D112E111005268002AFBD1244A4A6041
:1012100048E0C046580000205C000020001002405A
:10122000FFFFF3FF4C00002050000020FFFFFCFFF9
:10123000400000204400002000040048340000204A
:1012400038000020280000202C000020FF3FFFFF76
:101250001C00002020000020FFCFFFFFAC19000879
:101260003C170008481700085417000860170008CA
:101270006C1700087817000884170008B8010020D0
:10128000BC010020A8170008CC0100207C0200202F
:101290009017000844020020240200209C17000838
:1012A0003002002000243100049304A803AB05930E
:1012B0000394FFF7A5F9082204A906A8FEF76EFF1C
:1012C0001EA906A8FFF79CF9082206A908A8FEF7A0
:1012D00065FF26A908A8FFF793F9082208A90AA81C
:1012E000FEF75CFF2EA90AA8FFF78AF908220AA9CF
:1012F0000CA8FEF753FF36A90CA8FFF781F90822C6
:101300000CA90EA8FEF74AFF3EA90EA8FFF778F930
:1013100008220EA910A8FEF741FF46A910A8FFF762
:101320006FF9082210A912A8FEF738FF4EA912A8DB
:10133000FFF766F9082212A914A8FEF72FFF56A995
:1013400014A8FFF75DF93B00FC339A6AD8692100C5
:10135000FFF7FAF9374A0368134003600368364A17
:10136000134003604368354A1D40456003681340DD
:1013700001220360036813430360314B1A600025A8
:1013800001273048FFF7B8FC2F4C2000FFF76DF91C
:1013900022AB784018702000FFF767F92AAB78403D
:1013A00018702A48FFF761F98C2202AB9B1818705D
:1013B0002748FFF75AF92DAB18702000FFF755F9B1
:1013C00035AB1870347F2348E307A407E40FDB0F25
:1013D00021000193FFF754F901991F48FFF750F9D5
:1013E00055AB1A88A72302A95B005B18DB8B9342DD
:1013F0009B415B421D4303D014239342AD416D4298
:10140000002C15D03DAB1B889B0605D145AB1A8837
:101410004DAB1B889A420BD221001048FFF730F9E0
:1014200030BFAEE70E4A0260E3E60E4A0A6039E7D3
:101430002C00F1E7FFFDFFFFFFEFFFFFFFFBFFFFCA
:10144000B8010020BC010020440000205C00002006
:10145000500000202C000020380000202000002038
:101460002402002030020020FF23F0B51D00064FAB
:10147000064E0C7801315C403B5D6B40355D8A4225
:10148000F7D105704370F0BDAC170008AC18000828
:101490001FB50A2200236A441380074B04000193FE
:1014A000802301A95B008B80FA3B8B60FFF7DCFF98
:1014B000200004B010BDC046010300041FB50A227D
:1014C00000236A441380074B04000193802301A981
:1014D0005B008B80FA3B8B60FFF7C6FF200004B0F7
:1014E00010BDC046010300061FB50A2200236A444E
:1014F0001380074B04000193802301A95B008B80BC
:10150000FA3B8B60FFF7B0FF200004B010BDC0466F
:10151000010300051FB50A2200236A441380074B0C
:1015200004000193802301A95B008B80FA3B8B6050
:10153000FFF79AFF200004B010BDC0460103000869
:101540001FB50A2200236A441380074B040001934D
:10155000802301A95B008B80FA3B8B60FFF784FF3F
:10156000200004B010BDC046010300071FB50A22C9
:1015700000236A441380074B04000193802301A9D0
:101580005B008B80FA3B8B60FFF76EFF200004B09E
:1015900010BDC0460103000B1FB58B8B04000D4A24
:1015A000002B12D0002369464B810192FF336A461B
:1015B00013810623039304336B4420001A0001A90E
:1015C000FFF752FF200004B010BD69464B81019225
:1015D000EDE7C046010500011FB58B8B04000D4AE5
:1015E000002B12D0002369464B810192FF336A46DB
:1015F00013810623039304336B4420001A0001A9CE
:10160000FFF732FF200004B010BD69464B81019204
:10161000EDE7C046010500000023012110B51E4A78
:10162000136053609360D360136151611B4A10686B
:10163000884310601A485060042093601468204367
:10164000106002201468204310601068014311608C
:101650001921144A13601171134A02311360117178
:10166000124A0E3913601171114A0331136011715E
:10167000104A0739136011710F4A0131117113605B
:101680000E4A117113600E4A0131136011710D4A37
:101690001360117110BDC0468402002010E000E00C
:1016A0007FBB0000640200207C0200206C0200204E
:1016B000740200203C020020440200204C02002062
:1016C000540200205C0200200D4885460D480E495A
:1016D0000E4A002302E0D458C4500433C4188C428C
:1016E000F9D30B4A0B4C002301E013600432A242F1
:1016F000FBD3FFF703F9FEF72FFDFFF7E9FBFEE74A
:10170000001000200000002000000020C419000884
:10171000000000209C020020FEE70000F8B5C04653
:10172000F8BC08BC9E467047F8B5C046F8BC08BC7B
:041730009E4670471A
:101734000000000000000000D915000800000000AF
:1017440000000000991500080000000000000000DF
:101754006D1500080000000000000000411500089D
:101764000000000000000000151500080000000043
:1017740000000000E9140008000000000000000060
:10178400BD14000800000000000000001D06000851
:101794000000000000000000E7070008000000004F
:1017A400000000001506000800C1814001C080410E
:1017B40001C0804100C1814001C0804100C181401D
:1017C40000C1814001C0804101C0804100C181400D
:1017D40000C1814001C0804100C1814001C08041FD
:1017E40001C0804100C1814001C0804100C18140ED
:1017F40000C1814001C0804100C1814001C08041DD
:1018040001C0804100C1814000C1814001C08041CC
:1018140001C0804100C1814001C0804100C18140BC
:1018240000C1814001C0804101C0804100C18140AC
:1018340000C1814001C0804100C1814001C080419C
:1018440001C0804100C1814000C1814001C080418C
:1018540001C0804100C1814001C0804100C181407C
:1018640000C1814001C0804100C1814001C080416C
:1018740001C0804100C1814001C0804100C181405C
:1018840000C1814001C0804101C0804100C181404C
:1018940000C1814001C0804100C1814001C080413C
:1018A40001C0804100C1814000C0C101C30302C224
:1018B400C60607C705C5C404CC0C0DCD0FCFCE0E8C
:1018C4000ACACB0BC90908C8D81819D91BDBDA1AFC
:1018D4001EDEDF1FDD1D1CDC14D4D515D71716D66C
:1018E400D21213D311D1D010F03031F133F3F232DC
:1018F40036F6F737F53534F43CFCFD3DFF3F3EFE4C
:10190400FA3A3BFB39F9F83828E8E929EB2B2AEABB
:10191400EE2E2FEF2DEDEC2CE42425E527E7E6262B
:1019240022E2E323E12120E0A06061A163A3A2629B
:1019340066A6A767A56564A46CACAD6DAF6F6EAE0B
:10194400AA6A6BAB69A9A86878B8B979BB7B7ABA7B
:10195400BE7E7FBF7DBDBC7CB47475B577B7B676EB
:1019640072B2B373B17170B050909151935352925B
:1019740096565797559594549C5C5D9D5F9F9E5ECB
:101984005A9A9B5B99595898884849894B8B8A4A3B
:101994004E8E8F4F8D4D4C8C4484854587474686AB
:1019A4008242438341818040000000000000000027
:0419B4009114000882
:0819B8003501000819160008B2
:0419C0000901000811
:04000005080016C910
:00000001FF
